:020000040000FA
:040000005AEF00F0C3
:020008001000E6
:080018001000500E016E320EC3
:10002000006E000000000000000000000000000062
:1000300000000000000000000000000000000000C0
:1000400000000000000000000000000000000000B0
:1000500000000000000000000000000000000000A0
:100060000000000000000000000000000000000090
:100070000000000000000000000000000000000080
:100080000000000000000000000000000000000070
:100090000000000000000000000000000000000060
:1000A0000000000000000000002EBBD7012EB7D7D3
:1000B00000001200956A0FEC00F00DEC00F011EC5E
:0800C00000F00DEC00F0F7D791
:00000001FF
